:020000040000FA
:1000000090020010690100007101000073010000FE
:100010007501000077010000790100000000000078
:100020000000000000000000000000007B01000054
:100030007D010000000000007F0100008101000040
:1000400083010000830100008301000083010000A0
:100050008301000083010000830100008301000090
:100060008301000083010000830100008301000080
:100070008301000083010000830100008301000070
:100080008301000083010000830100008301000060
:100090008301000083010000830100008301000050
:1000A0008301000083010000830100008301000040
:1000B0008301000083010000830100008301000030
:1000C00083010000830100008301000000F002F8BA
:1000D00000F03AF80AA090E8000C82448344AAF1A8
:1000E0000107DA4501D100F02FF8AFF2090EBAE8A6
:1000F0000F0013F0010F18BFFB1A43F0010318475C
:10010000D0060000F0060000103A24BF78C878C17D
:10011000FAD8520724BF30C830C144BF04680C600D
:10012000704700000023002400250026103A28BF55
:1001300078C1FBD8520728BF30C148BF0B60704759
:100140001FB51FBD10B510BD00F02FF81146FFF709
:10015000F7FF00F043FA00F04DF803B4FFF7F2FFA9
:1001600003BC00F055F800000948804709480047E3
:10017000FEE7FEE7FEE7FEE7FEE7FEE7FEE7FEE757
:10018000FEE7FEE704480549034A054B70470000B7
:1001900001030000CD00000090000010900200104C
:1001A00090000010704770477047754600F02CF8BB
:1001B000AE4605006946534620F00700854618B054
:1001C00020B5FFF7DFFFBDE820404FF000064FF0FD
:1001D00000074FF000084FF0000B21F00701AC467C
:1001E000ACE8C009ACE8C009ACE8C009ACE8C0099B
:1001F0008D46704710B50446AFF300802046BDE839
:100200001040FFF7AABF0000004870472C00001004
:1002100001491820ABBEFEE726000200704730B54A
:100220000446002503E00A2000F010F86D1CA542EA
:10023000F9D330BD30B50446002504E04FF47A70A0
:10024000FFF7EDFF6D1CA542F8D330BD0021002261
:1002500000BF05E0002200E0521C172AFCD3491C15
:100260008142F7D37047000030B50A46A0281CDA57
:10027000032A1AD8431100F01F005C06230E102831
:1002800004DB5C1CE3B2A0F11004E0B24406200ED3
:10029000064C04EB8301032585400C68AC430C60DD
:1002A00002FA00F50C682C430C6030BD00C002401F
:1002B0000146002004290ED200BF074A02EBC1020A
:1002C0005268127D02F00102002AF6D0024A02EBC7
:1002D000C102526810787047B00700000549886075
:1002E00000BF044949682829FBD10821014A9161CE
:1002F0007047000000C0054000000000FFFFFFFF46
:1003000020204B4908604B48D0F8A00100F02000A5
:1003100030B100BF4648006800F040000028F9D026
:10032000052043499C39086000204249C1F8A801D2
:100330003F490C31086001203D49943908600E2086
:100340003C4984310860AA203A498C310860552024
:1003500008600120374980310860AA2035498C3176
:10036000086055203349C1F88C0000BF31488830FF
:10037000006800F080600028F8D003202D4980310B
:100380000860AA202B49C1F88C00552029498C31DE
:10039000086000BF27488830006800F04070B0F166
:1003A000407FF7D123202349A4310860AA202149A6
:1003B000C1F8AC0055201F49AC31086001201D492F
:1003C000A0310860AA201B49AC31086055201949AA
:1003D000C1F8AC0000BF1748A830006800F4806086
:1003E0000028F8D003201349A0310860AA20114941
:1003F000C1F8AC0055200F49AC31086000BF0D4872
:10040000A830006800F44070B0F5407FF7D10A488A
:100410000849C431086000200649C1F8C8010846EF
:10042000006820F4704040F480400860704700008D
:10043000A0C10F4000C00F40DE87280470B50446FD
:100440000D46042C2FD2184A02EBC4029178164AAA
:1004500012F83400FFF708FF134A02EBC402917848
:10046000114A02EBC4025078FFF7FEFE0F48006805
:100470000D4901EBC401CA780121914008430B49A1
:10048000C439C1F8C4000720074901EBC401496819
:1004900008728320044901EBC401496808732946A6
:1004A000204600F005F870BDB0070000C4C00F4042
:1004B00070B50B46042835D21B4D2D68C5F3811449
:1004C00034B1012C08D0022C09D0032C0FD10AE042
:1004D000164D2D68A9080AE0144D296807E0134D50
:1004E0002D68690803E0114D2D68E90800BF00BFC1
:1004F0001D01B1FBF5F20E4E06EBC00676683270B8
:10050000150A0B4E06EBC00676683571084D05EBF3
:10051000C0056D682D7B25F08005054E06EBC006F5
:100520007668357370BD0000A8C10F400000001050
:10053000B007000004280FD271B100BF074A02EBD8
:10054000C0025268127D02F02002002AF6D0034A4F
:1005500002EBC0025268117070470000B007000043
:1005600010B503460C4614B1012C1AD10CE043F02F
:100570000C00FFF7B3FE43F00C00FFF7AFFE43F0B3
:100580000800FFF7ABFE0CE043F00D00FFF7A6FEFE
:1005900043F00D00FFF7A2FE43F00900FFF79EFEB7
:1005A00000BF00BF10BD00004FF4707008494860E4
:1005B0004FF4207048644FF4C010886680200549CD
:1005C0000860262004494861252008617047000022
:1005D00000C00240ACC10F4000C00540FFF790FED4
:1005E0004FF416510020FFF729FFFFF7DDFF002130
:1005F000282000F081F800210E2000F07DF8002175
:10060000012000F079F800210C2000F075F800219D
:10061000802000F071F80020334908700EE0462079
:10062000FFF7FDFD3149304A1278885C012100F066
:1006300063F82D480078401C2B4908702B482A4944
:100640000978405C0028EAD10220FFF7F3FD49E079
:100650002749002000F088F80021C02000F04CF865
:100660000020214908700EE00220FFF7E3FD204939
:100670001D4A1278885C012100F03EF81A48007883
:10068000401C194908701A4917480078401C085C3A
:100690000028E9D1144908700EE00220FFF7CAFDD6
:1006A0001449114A1278885C012100F025F80E489F
:1006B0000078401C0C4908700B4800780A28ECDBD5
:1006C00000200949087009E000200949064A12780B
:1006D000885405480078401C034908700248007897
:1006E0000E28F1DBB4E700001B000010050000102D
:1006F0001C00001010000010F0B504460F4600F07A
:100700001DF84E200C49886000BF0B48406818282F
:10071000FBD108200849886104F0F0052007060E87
:1007200028463946FFF71CFF30463946FFF718FFC9
:1007300000F012F8F0BD000000C00540602005493F
:10074000086000BF034840680828FBD12820014901
:100750008861704700C00540102002490860FF20F2
:100760008861704700C0054070B506460D460023FD
:1007700019E03046FFF79CFD044621463046FFF75E
:10078000D9FE0D2C01D00A2C04D163B10A20E85403
:10079000E85409E0082C03D113B1581EC3B202E09B
:1007A000EC54581CC3B2E4E700BF184670BD00000B
:1007B0000203010300C00040404102040000014068
:1007C0000A0B0118008009400001021900C009400D
:1007D000F0070000000000101C00000008010000ED
:1007E0000C0800001C00001074020000240100002E
:1007F00000879303004C43445F494E4954454400ED
:0C080000202020202020202020200000AC
:04000005000000CD2A
:00000001FF
