:020000040000FA
:10000000F8160010C1020000C9020000CB02000077
:10001000CD020000CF020000D1020000000000006D
:10002000000000000000000000000000D5010000FA
:10003000D5020000000000005D020000AD020000DB
:10004000DB020000DB020000DB020000DB0200003C
:10005000DB020000DB020000DB020000DB0200002C
:10006000DB020000DB020000DB020000DB0200001C
:10007000DB020000DB020000DB020000DB0200000C
:10008000DB020000DB020000DB020000DB020000FC
:10009000DB020000DB020000DB020000DB020000EC
:1000A000DB020000DB020000DB020000DB020000DC
:1000B000DB020000DB020000DB020000DB020000CC
:1000C000DB020000DB020000DB02000000F002F8AF
:1000D00000F03CF80AA090E8000C82448344AAF1A6
:1000E0000107DA4501D100F031F8AFF2090EBAE8A4
:1000F0000F0013F0010F18BFFB1A43F0010318475C
:10010000E018000000190000103A24BF78C878C138
:10011000FAD8520724BF30C830C144BF04680C600D
:10012000704700000023002400250026103A28BF55
:1001300078C1FBD8520728BF30C148BF0B60704759
:100140001FB500F0F6F81FBD10B510BD00F06FF937
:100150001146FFF7F5FF00F019FE00F08DF903B42A
:10016000FFF7F2FF03BC00F091F9000080F309886B
:100170007047EFF309807047684680F309880448A8
:100180000078C00714BF0220032080F31488704752
:1001900064190000DFF818C0EFF305831B0618BFD1
:1001A0006047EFF31483DB0708BF604700DF704749
:1001B000E10D0000DFF818C0EFF305831B0618BF40
:1001C0006047EFF31483DB0708BF604700DF704729
:1001D000810F0000EFF30980816911F8021C39BB1F
:1001E00090E80F10E047EFF3098C194B93E80600F5
:1001F000914218D059B10CB44FF0010381F8263068
:100200002CE9F00FC1F82CC001F042F90CBC1A60C7
:10021000D2F82CC0BCE8F00F92F826308CF3098895
:100220001BB192F82500CCF800006FF0020E704769
:1002300010B5084A1268914209D8074C54F8214079
:1002400090E80F10A047EFF3098C8CE80F0010BD69
:10025000240000109C0400009C04000001F030F811
:10026000114B93E8060091421BD00CB44FF00003F1
:1002700081F82630EFF3098C2CE9F00FC1F82CC07F
:1002800001F006F90CBC1A60D2F82CC0BCE8F00FE3
:100290008CF3098892F826301BB192F82530CCF8FF
:1002A00000306FF0020E70472400001001F0C0F91A
:1002B000D6E7000000F092FD01F0BAF9D0E70000A7
:1002C0000948804709480047FEE7FEE7FEE7FEE7EA
:1002D000FEE7FEE7FEE7FEE7FEE7FEE70448054926
:1002E000034A054B7047000009070000CD000000DD
:1002F000F8140010F8160010F8140010FFFFFFFFAC
:1003000000487047B41300100B4910B5A1F17C02EE
:100310000A4CC2E93712372106E000EB104342F8DD
:100320002130074B00FB03400B1EA1F10101F4DC5F
:1003300010BD0120E8E7000090140010E119D66616
:10034000CD0D010010B5203AC0F00B80B1E8185077
:10035000203AA0E81850B1E81850A0E81850BFF4AF
:10036000F5AF5FEA027C24BFB1E81850A0E818504E
:1003700044BF18C918C0BDE810405FEA827C24BFA2
:1003800051F8043B40F8043B08BF7047D20728BF30
:1003900031F8023B48BF11F8012B28BF20F8023B7F
:1003A00048BF00F8012B70474FF0013C50F8042B78
:1003B00051F8043B9A4221D1A2EB0C03934313EA78
:1003C000CC1317D150F8042B51F8043B9A4215D1A5
:1003D000A2EB0C03934313EACC130BD150F8042B7C
:1003E00051F8043B9A4209D1A2EB0C03934313EA60
:1003F000CC13DBD04FF00000704700BFD01A01BA19
:10040000B1FA81F101F0180122FA01F0CB40C1F1FB
:100410002001DBB2C0B2C01A2CFA01F3D11A914309
:1004200011EAC311E6D170477047704770477546AF
:10043000FFF766FFAE4605006946534620F0070009
:10044000854618B020B5FFF749FFBDE820404FF0C2
:1004500000064FF000074FF000084FF0000B21F0AE
:100460000701AC46ACE8C009ACE8C009ACE8C0097B
:10047000ACE8C0098D46704710B50446AFF3008064
:100480002046BDE81040FFF76ABE00000149182071
:10049000ABBEFEE72600020070470000000000002F
:1004A00030B50446002503E00A2000F004F86D1C76
:1004B000A542F9D330BD0021002200BF05E0002293
:1004C00000E0521C172AFCD3491C8142F7D3704725
:1004D00010B5044613A1002000F092FA16A12046A0
:1004E000FFF762FF38B916A1002000F089FA012059
:1004F0001949087014E019A12046FFF755FF38B9D3
:1005000018A1002000F07CFA00201349087007E0D1
:1005100019A1002000F074FA2146002000F070FAC2
:1005200010BD0000556E64657220646576656C6F61
:10053000706D656E740D0A00737461727400000052
:10054000456E6372797074696F6E20537461727452
:1005500065640D0A000000000500001073746F70E0
:1005600000000000456E6372797074696F6E2053ED
:10057000746F7065640D0A00496E76616C69642061
:10058000617267756D656E740D0A0000F0B58DB00F
:10059000054600263A49D1E900208968CDE90A20BC
:1005A0000C91282236490C316846FFF7CBFE00BF7C
:1005B000002404E0285D0AA90855601CC4B2285D27
:1005C000202802D0285D0A28F4D1274609E0A74256
:1005D00005DA2A5D3046711CCEB20DF80020601C91
:1005E000C4B2285D0028F2D10D21701EC0B20646AB
:1005F0000DF800100A21701CC0B206460DF800105C
:100600000021701CC0B206460DF800101DA10AA8FA
:10061000FFF7CAFE002826D01CA10AA8FFF7C4FED7
:1006200018B9684600F0FCFA1DE01AA10AA8FFF705
:10063000BBFE18B9684600F0B1FA14E017A10AA889
:10064000FFF7B2FE18B96846FFF742FF0BE015A1AD
:100650000AA8FFF7A9FE10B900F0ECFA03E013A115
:10066000002000F0CDF9002603E00020A855701C02
:10067000C6B2272EF9DB002601200DB0F0BD000028
:100680008819000073656E645F7300006563686FAE
:1006900000000000636865636B000000656E6372B4
:1006A0007970740068656C7000000000496E7661B6
:1006B0006C696420436F6D6D616E640D0A0000000B
:1006C00030B50A46A0281CDA032A1AD8431100F0D4
:1006D0001F005C06230E102804DB5C1CE3B2A0F1B3
:1006E0001004E0B24406200E064C04EB83010325FF
:1006F00085400C68AC430C6002FA00F50C682C4392
:100700000C6030BD00C0024020204B4908604B48BF
:10071000D0F8A00100F0200030B100BF46480068CA
:1007200000F040000028F9D0052043499C390860BA
:1007300000204249C1F8A8013F490C31086001205E
:100740003D49943908600E203C4984310860AA2054
:100750003A498C31086055200860012037498031C2
:100760000860AA2035498C31086055203349C1F80A
:100770008C0000BF31488830006800F0806000289D
:10078000F8D003202D4980310860AA202B49C1F8F8
:100790008C00552029498C31086000BF27488830DB
:1007A000006800F04070B0F1407FF7D1232023496A
:1007B000A4310860AA202149C1F8AC0055201F4986
:1007C000AC31086001201D49A0310860AA201B49F6
:1007D000AC31086055201949C1F8AC0000BF17487A
:1007E000A830006800F480600028F8D00320134986
:1007F000A0310860AA201149C1F8AC0055200F496A
:10080000AC31086000BF0D48A830006800F44070AB
:10081000B0F5407FF7D10A480849C431086000208C
:100820000649C1F8C8010846006820F4704040F449
:100830008040086070470000A0C10F4000C00F401A
:10084000DE87280470B504460D46042C2FD2184AC2
:1008500002EBC4029178164A12F83400FFF730FF19
:10086000134A02EBC4029178114A02EBC402507899
:10087000FFF726FF0F4800680D4901EBC401CA7855
:100880000121914008430B49C439C1F8C400072035
:10089000074901EBC401496808728320044901EB50
:1008A000C401496808732946204600F051F870BD1C
:1008B000BC190000C4C00F400146002004290ED21C
:1008C00000BF074A02EBC1025268127D02F001022A
:1008D000002AF6D0024A02EBC10252681078704733
:1008E000BC1900002DE9F04780460E460027002481
:1008F0000025A1461448007801281FD119E01349AA
:10090000404600F083FF1148847804F0100018B9C5
:100910000E480578477802E00C484578077884F05F
:100920002F04674065407D404846411C01F0FF09A7
:1009300035540D2DE3D10020BDE8F0873146404607
:1009400000F064FFF8E70000050000101C00001034
:1009500070B50B46042835D21B4D2D68C5F38114A4
:1009600034B1012C08D0022C09D0032C0FD10AE09D
:10097000164D2D68A9080AE0144D296807E0134DAB
:100980002D68690803E0114D2D68E90800BF00BF1C
:100990001D01B1FBF5F20E4E06EBC0067668327013
:1009A000150A0B4E06EBC00676683571084D05EB4F
:1009B000C0056D682D7B25F08005054E06EBC00651
:1009C0007668357370BD0000A8C10F4000000010AC
:1009D000BC19000004280FD271B100BF074A02EB16
:1009E000C0025268127D02F02002002AF6D0034AAB
:1009F00002EBC0025268117070470000BC19000081
:100A00002DE9FE4F8246894600270025A84600248E
:100A10003F4A07CA8DE807000920FFF775FC3D48EB
:100A2000007801286ED1002667E000BF002007464D
:100A30000546804619F806800227042588EA07083B
:100A400088EA05086F4085F02F0505F0100078B999
:100A50002046611CCCB20DF800802046611CCCB24F
:100A60000DF800702046611CCCB20DF800500EE06D
:100A70002046611CCCB20DF800702046611CCCB23F
:100A80000DF800802046611CCCB20DF800500D22FC
:100A90002046611CCCB20DF800200A222046611CC1
:100AA000CCB20DF8002000222046611CCCB20DF81B
:100AB000002000249DF800000D28B7D09DF801000B
:100AC0000D28B3D09DF802000D28AFD09DF800008E
:100AD0000A28ABD09DF801000A28A7D09DF8020093
:100AE0000A28A3D06946504600F0B3FE4FF4487080
:100AF000FFF7D6FC00BF701CC6B219F8060000282C
:100B000093D103E04946504600F0A3FEBDE8FE8FB6
:100B10007C1900000500001010B5002A06DA22F04A
:100B20000042D21D22F00703102203E0D21C22F063
:100B300003030C2213B19C188C4201D9012010BD73
:100B4000024401448360C0E90021C91AD0188842D8
:100B500002D810600246F9E70020106010BD0000C6
:100B600010B5044600F04AFE002805D04FF6FF718C
:100B7000DFF808C0206800DF10BD00005912000037
:100B800010B5044600F03AFE002803D0DFF808C094
:100B9000206800DF10BD00007511000010B504468C
:100BA00002A10020FFF72CFF10BD0000556E646508
:100BB0007220646576656C6F706D656E740D0A00E9
:100BC00008480068C0010BD507480068C00707D077
:100BD000054880380068002802DA044901200870BE
:100BE00070470000FCED00E0800E00E02C000010DB
:100BF0004FF06042D36F002BFCD0436BD367D36FB1
:100C0000002BFCD0C07840EA0120A2F87C0070479D
:100C10004FF06041CA6F002AFCD081F87C00704719
:100C200010B5044621460020FFF7EAFE204600F0FA
:100C300029FE10BD10B504A10020FFF7E1FE07A1B9
:100C40000020FFF7DDFE10BD556E646572206465FF
:100C500076656C6F706D656E740D0A00312E65637C
:100C6000686F2020322E636865636B2020332E6509
:100C70006E63727970740D0A00000000012100207B
:100C8000DFF874C000DFDFF874C000DF1C490860C3
:100C900000231A4601211B48DFF86CC000DF1B4906
:100CA00008604FF416510020FFF7CCFD4FF41650AA
:100CB00000F0F6FD16A10020FFF7A2FE1DA1002006
:100CC000FFF79EFE16E01D48007880B91C49002001
:100CD000FFF708FE1B49087001201849087014A18D
:100CE0000020FFF78DFEDFF860C000DF02E0DFF8D4
:100CF00058C000DFE7E7000071170000FD17000093
:100D0000080000104D0D0000B11600000C0000108E
:100D1000547970652068656C7020666F722061760A
:100D200061696C61626C6520636F6D6D616E647387
:100D30000D0A0000434D445F3E0000000400001017
:100D40004C000010060000104117000013E00A4894
:100D5000007801280CD10948FFF718FC002006494B
:100D6000087007A1FFF74CFEDFF81CC000DF02E0AF
:100D7000DFF814C000DFEAE7040000104C000010A8
:100D80000D0A434D445F3E004117000010B5FFF7C8
:100D9000F3F9002211460348DFF80CC000DF002001
:100DA00010BD00007D0C0000DD14000000BFFEE758
:100DB00000BFFEE7074801684FF0E02041610021D5
:100DC0008161072101610448016841F07F410160B0
:100DD000401770476019000020ED00E07047704731
:100DE00050E8001F31B10B6840E80032002AF7D10B
:100DF00008467047BFF32F8FFAE7000070B50D4625
:100E0000002812D04FF6FF71084C884204D22268A5
:100E10000146104600F092FA20684570044800F040
:100E2000BFF8BDE8704000F045BB70BD2400001065
:100E3000841300100F4810B50D4942680E480B6826
:100E40000068934204D00A60CB88421E1A448A800C
:100E50008A8880B282420AD100200860054800F0EA
:100E60009FF80146BDE81040024800F08BBA10BD63
:100E700038000010841300104000001070B51A4DA7
:100E8000E86800282ED0A88A401EA882002623E009
:100E9000A06838B161684160606810B1A168816084
:100EA0006660A66010482146183800F06BFAA08AE8
:100EB000A8826078042804D10C49E08A0988084493
:100EC000A0820120607084F82500E068E860E06896
:100ED00008B10561E6602661A88A002802D1EC68A5
:100EE000002CD5D170BD00009C13001040000010F4
:100EF00070B504000FD00D4DA178012628688278C6
:100F000091420CD900F05AFA286846702046BDE894
:100F1000704000F0CFBA064800F042F8F7E766707C
:100F20002146BDE87040024800F02CBA24000010B1
:100F30008413001010B50446008B084320836278A8
:100F4000618B062A16D0052A17D1084215D001EA6E
:100F50000002628388432083204600F053FA012078
:100F60006070022084F825002146BDE81040034847
:100F700000F008BA31EA0002ECD010BD8413001072
:100F8000814202D342688A4201D80120704750E86A
:100F9000002F0A6040E80012002AF8D100207047B4
:100FA0000146406842684A600B780022022B05D057
:100FB000012B03D0032B01D04260704743680BB173
:100FC00099604260826070470649074B48681B6819
:100FD00082789B789A4202D142684A60704700202A
:100FE00070470000841300102400001070B5044600
:100FF00000201546207001226270A17084F8241030
:101000006060A060E06020612062A082E0822083B6
:10101000608384F8250084F82600208D18B90548DF
:10102000FFF7DEFE206329462046BDE8704000F051
:101030000FB80000E00100100348002101600349DF
:101040000988C18070470000380000105C1900005A
:1010500010B5028D920803D10F4A1288C2F38D0297
:10106000036B03EB8202530700D5121F4FF080730E
:1010700042E9021300231C46B2F1400242F8234029
:101080005B1C0E2BFAD3C3691362C2624163006B0F
:101090000249016010BD000058190000A52E5AE257
:1010A0002DE9F041044640680F464FF0000804F176
:1010B0000C0620B1617802291DD0A089E8B3A0896F
:1010C000E18988424ED2208904EB8000C0F810707C
:1010D000D6E85F0F401C81B2C6E8501F0028F7D148
:1010E0002089401C80B22081E189884201D1A4F886
:1010F0000880BDE8F081406800B1012060702046A2
:10110000FFF74EFF80F825802289054604EB820216
:10111000C0694146C2F81000D6E85F0F401C82B299
:10112000C6E8502F0028F7D12089401C80B22081CA
:10113000E28990420BD1218109E0FFE72046FFF7C9
:101140002FFF0546C0690421076085F8251001209E
:101150006870284600F056F92946BDE8F041044879
:1011600000F010B9BDE8F0410320FFF71FBE0000FA
:10117000841300102DE9F0470446408820B1344D17
:10118000A1682A68914202D0FF20BDE8F087401E86
:101190000004000C608059D12968086AA04209D176
:1011A000E068086208E0C268A24202D1E268C26058
:1011B00002E010460028F6D191F824000A6A06E001
:1011C00053681BB19B78834200D91846D268002A25
:1011D000F6D18870DFF87C8061689146012741B3C1
:1011E0002046FFF7DDFE0646052086F8250030463E
:1011F00000F008F96780A660306AE0603462296810
:10120000D8F804008A788078824201D330460AE018
:10121000104800F0B7F831460E4800F0B3F82868DF
:101220004770777010E0FFF763FE296881F825901A
:101230000CE0D8F804108A782968824206D905485B
:1012400000F0A0F8286847700020ECE700209CE739
:10125000240000108413001070B5184D0E4604468B
:101260004188286839B1A168814209D16088401C51
:101270006080002070BDA060016AE1600462F5E753
:1012800076B18A788078824203D28870A06800F0B4
:101290009FF8606830B12046296800F073F808E0D4
:1012A000012070BD286860602968002048602868B7
:1012B000846009213046FFF7A1FDF1E7240000100A
:1012C00070B51B48012102685170006800F076F883
:1012D000184D6C7818E000BF05EBC401486802782F
:1012E000EAB1012A20D000F0B9F8E878641C844201
:1012F00000D100240F48801CD0E84F1F491EC9B2FE
:10130000C0E8421F002AF7D1A8780028E4D16C7009
:101310000948FFF745FEBDE8704000F0CBB80989E9
:1013200089B2FFF707FEE0E78968FFF7B9FEDCE75F
:1013300024000010F00F001084130010104A10B5A4
:10134000D368ABB113469B8A03E08CB12246A48AD2
:101350002344D4688B42F8D3C460D0600261C4686F
:1013600004B12061591A8182908A401A908210BD7E
:101370000024C460D060C91A02619182848210BDC9
:101380009C13001030B502780023022A03D0012AF2
:1013900001D0032A00D101238C7800E01046426876
:1013A00012B19578A542F9D24A6041601BB102B1F1
:1013B0009160886030BD0020FBE7000003494A6867
:1013C0004260002282604860704700008413001071
:1013D00010B5836804462BB9607801280ED1084BFC
:1013E00003E09B6818780028FBD0204600F01EF828
:1013F0002146BDE810401846FFF7C4BF10BD0000ED
:101400008413001010B5016900290ED0C268CA60AB
:10141000C36800223BB18B8A848A23448B82C368D1
:101420001961C26000E08A82026110BD816839B131
:1014300042684A604168002901D08068886070472E
:10144000054906E04A68824202D140684860704718
:1014500011460029F6D170478413001010B5416879
:1014600079B1FFF79DFD0446FFF7CCFF01206070C6
:10147000032084F825002146BDE810400348FFF70B
:1014800081BF4188491C418010BD000084130010B9
:1014900006480068D0E90B10814203D30068044974
:1014A000884202D00120FFF781BC70472400001061
:1014B000A52E5AE20749022248604270064A127875
:1014C000002A05D006C98A4202D0C078FFF7A0BB27
:1014D00070470000240000102C0000102DE9F04798
:1014E000164688468146FFF76BFB002004463E4ABD
:1014F0003E4902E042F82040401C0B889842F9D354
:101500003B48382201883B48FFF706FB3A480088F1
:1015100080B240F00042394801683948FFF7FCFAD0
:1015200038480822018838480068FFF7F5FA374F35
:10153000FF25374AFD703C8500213846FFF756FDF0
:10154000344804210170446033480170C460046170
:101550008482F86A2030FEF709FE3048314907607E
:10156000022078702E48047044700978C170FFF72B
:1015700063FD2D48016841F47F0101600068290680
:1015800001EA00202849C0431439B0FA80F0096804
:10159000C0F10800C1F30221814200DB481C22494E
:1015A000091F0B686FF08072824063F317020A60B4
:1015B000FFF700FC1D49002808600DDB00F1E02169
:1015C00081F8005400F01F02012191404011800079
:1015D00000F1E020C0F80011324641464846BDE81F
:1015E000F047002300F064B8741000105419000094
:1015F00070190000800000105819000074190000D4
:10160000E00100107A190000140000104C130010C3
:10161000B10D0000841300109C1300102400001072
:10162000F00F00107819000020ED00E034000010E9
:101630000C4810B50268012151700068FFF7BEFE2A
:10164000FFF7F8FB08480168491C0160FFF716FC2A
:1016500000F00EF80548FFF7A3FCBDE81040FFF7C7
:1016600029BF000024000010400000108413001067
:1016700070B50D4C2068002815D0A0880B4E401E78
:10168000A0800AE0E888FFF7AAFBA888A080286865
:10169000206029463068FFF773FCA088002802D13B
:1016A0002568002DEED170BD44000010140000101C
:1016B0002DE9F0411E46174680460C4611F0FF0FFB
:1016C00000D14C1C1948FFF78BFB05002BD0200ADA
:1016D0002F632885E1B242462846EE61FFF786FC7B
:1016E00001241348134905E000EB840252F8042C4E
:1016F00022B1641C0A889442F6D9002400EB8400CD
:10170000E6B240F8045C0C48EE70007818B1012194
:101710002846FFF76DFA2846FFF7EAFB07480068FE
:1017200080F825602046BDE8F081000080000010B0
:1017300074100010541900002C0000102400001038
:1017400070B5FFF741FC04000CD0074D074829682D
:10175000FFF718FE2968012048702046BDE8704058
:10176000FFF7A8BE70BD0000240000108413001015
:1017700070B51E4C002680B11D4A1288904222D8B6
:101780001C4A02EB800050F8045CE5B1A97085F8B2
:1017900024102068A84205D017E0206881702068D6
:1017A00080F8241014484068807888421BD9124879
:1017B0002168FFF7E7FD216801204870206880F864
:1017C000256000200DE0FF2070BD2846FFF700FED9
:1017D0006878012807D10848FFF7E2FB216881F803
:1017E0002560FFF785FB002070BD0000240000107D
:1017F000541900007410001084130010024800688F
:10180000002800D0C07870472400001070B506464C
:101810000D46002319E03046FFF74EF804462146F6
:101820003046FFF7D7F80D2C01D00A2C04D163B154
:101830000A20E854E85409E0082C03D113B1581EDB
:10184000C3B202E0EC54581CC3B2E4E700BF184630
:1018500070BD10B504460B4604E013F8011B20468A
:10186000FFF7B8F818780028F7D110BD00BF044979
:10187000097D01F020010029F9D001490870704765
:1018800000C0094000B50246002304E0D05CFFF729
:10189000EDFF581CC3B2D05C0028F7D100BD00009A
:1018A00030B50246274C246844F00074254DC43DF1
:1018B000C5F8C440244C646A44F07064224D6C62E4
:1018C000204CC43CD4F8AC4144F440341D4DC43DDC
:1018D000C5F8AC411D4C247B44F083041B4D2C7394
:1018E000184CE8342468C4F3814333B1012B08D089
:1018F000022B09D0032B0FD10AE0154C2468A00855
:101900000AE0134C206807E0114C2468600803E0EB
:101910000F4C2468E00800BF00BF1401B0FBF4F1D5
:101920000A4D29700C0A2C712C46247A44F00704C5
:101930002C722C46247B24F080042C7301246C60D0
:1019400030BD0000C4C00F4000C0024000C00940CC
:101950000000001006000000FC010001050001006D
:10196000FF520700000000001027000000000000E8
:101970005C010000100E0000100000000D0A0000C5
:101980000000000000000000000A0000000000004D
:1019900000000000000A000000000000000000003D
:1019A0000000000000000000000000000000000037
:1019B000000000000000000000000000020301031E
:1019C00000C0004040410204000001400A0B011821
:1019D000008009400001021900C009404B000400CA
:1019E000001A0000000000104C0000000801000078
:1019F0004C1A00004C000010AC160000240100003E
:101A000000879303000100000000000000000000B8
:101A100000000000000000000000000000000000C6
:101A200000000000000000000000000000000000B6
:101A300000000000000000000000000000000000A6
:0C1A40000000000000000000000000009A
:04000005000000CD2A
:00000001FF
